:02000002D0002C
:1040000000400D00C87D0D00000006000C000501F9
:084010000401BB0B00000000DD
:044018006C790D00B2
:10401C0009480A49884208B505D0094A824202D0AB
:10402C00121A03F03DFC0748074A0021121A03F04C
:10403C0045FC014808BD00BF30E503200C7D0D0098
:10404C00C4E50320C4E50320F0E7032070B5074E58
:10405C00074C01F0F7FEA41BA4080025A54200D1D3
:10406C0070BD56F8043B98470135F7E7D87C0D0036
:10407C00FC7C0D0000F03EB808B500F003F9BDE87B
:10408C00084001F0A1BE01F01BBB01F019BB01F00F
:10409C001FBB0078B0FA80F0400970470123037011
:1040AC0070470000044B1A68012A02F101010ABF93
:1040BC00002219601A607047E0E50320044B1A686F
:1040CC00012A02F101010ABF002219601A6070472F
:1040DC00E4E5032013B5064B1B788DF80030002265
:1040EC003C23044602F006F8204602B010BD00BF87
:1040FC00C8E5032073B5334E334D3088032102F0ED
:10410C00D7FC00242888032102F0D2FC2F493088E8
:10411C0000944FF0FF33012202F062FA2C492888F8
:10412C0000944FF0FF33012202F05AFA234629493A
:10413C002948022201F0A4FA2346284928480222E1
:10414C0001F09EFA022223462649274801F098FAEC
:10415C0002F01AFA4FF4165102F00AFA234800F052
:10416C00C7FD02F00DFD02F039FB214800F08FFC79
:10417C00204B0121188802F09BFC1F4B0121188851
:10418C0002F096FC1D4B0121188802F091FC1C4B8F
:10419C000121188802F08CFC1A4B0121188802F0BE
:1041AC0087FC194B0121188802F082FC174B012166
:1041BC00188802F07DFC164802B0BDE8704001F092
:1041CC0020B800BF3CE5032034E50320B1400D00CE
:1041DC00C9400D002CE6032080790D0038E6032041
:1041EC0093790D0030E60320A3790D00FCE5032044
:1041FC00CAE5032040E5032048E503204CE50320F5
:10420C0050E5032038E5032044E5032030E5032086
:10421C0018E6032038B5046805467CB16368013B99
:10422C0063605BB9236820469B689847A368013B91
:10423C00A3601BB923682046DB689847284638BD25
:10424C00F8B505460C4616464AB90368C9B29B68D0
:10425C0098470746284601F058FC3844F8BD002919
:10426C000CDA0A2A0AD12D2101F04CFC61420746D6
:10427C00F2B2284601F05FFC0744EBE72146002729
:10428C00F6E700002DE9F04F2DED088BDFF8709369
:10429C0093B04C46D9F80030002B41D0B24FDFF828
:1042AC006483DFF864932368012B40F0588102F09B
:1042BC006BF9394601F022FC02F066F90A222168FA
:1042CC00AA4EFFF7BDFFB8F80000002102F01AFC5F
:1042DC00B9F80000002102F015FCA54B002118884C
:1042EC0002F010FCA34BFF21188802F00BFCA24B30
:1042FC0000251D60A14B1D6033680133022B336018
:10430C00D1D19F490EA8FFF7E5FE0FA8FFF782FF5A
:10431C009C4B35601D609C4B1D609C4B1D60C0E729
:10432C00FA20DFED9B8ADFF878A2DFF878B201F093
:10433C0011FD4FF4FA75B0EE68AAB0EE689AB0EEC3
:10434C0068BAF0EE68BAF0EE68AA924E924FDFF8B7
:10435C00BC82924B924A9349934802960197CDF8AE
:10436C00008000F04FFBBBF9003007EE903ABAF931
:10437C000030F8EEE77A013D7AEEA7AA07EE903A04
:10438C00864BF8EEE77AB3F900307BEEA7BA07EE6E
:10439C00903AB8F90030F8EEE77A3BEE27BA07EE20
:1043AC00903AB7F90030F8EEE77A39EE279A07EE33
:1043BC00903AB6F90030F8EEE77A3AEE27AA07EE13
:1043CC00903AF8EEE77A78EEA78ABED19FED778A1D
:1043DC00774E02F0D9F8774901F090FB02F0D4F84F
:1043EC008AEE880A02214FF4FA75DFED73AA20EEEB
:1043FC002A0A01F087FC02F0C7F8704901F07EFB35
:10440C0002F0C2F86E4901F079FB02F0BDF88BEEB8
:10441C00880A0221C9EE089A20EE2A0A01F072FCE1
:10442C0002F0B2F865499FED679A01F067FB02F064
:10443C00ABF8654901F062FB02F0A6F88BEE080AB6
:10444C00022169EE899A20EE2A0A01F05BFC02F047
:10445C009BF85E4901F065FB02F096F85C4901F0AF
:10446C004DFB02F091F8B0EE690A022101F04AFC12
:10447C0002F08AF8574901F041FB02F085F85649E1
:10448C0001F03CFB02F080F88AEE080A022120EED3
:10449C00090A01F037FC02F077F84E4901F02EFBC7
:1044AC0002F072F84D4901F029FB02F06DF888EE2C
:1044BC00880A022120EE090A01F024FC02F064F8BB
:1044CC0047499FED339A01F02CFB304600F0B4FEC7
:1044DC00013D39EE009AF8D1C9EE088A02F054F881
:1044EC00404901F00BFB02F04FF80221B0EE680AD4
:1044FC0001F008FC02F048F83B4901F012FB02F015
:10450C0043F83A4901F0FAFA02F03EF8DFED387A56
:10451C0088EEA70A0221F1EE047A20EE270A01F0B8
:10452C00F1FB02F031F8334901F0FBFA324800F0AC
:10453C00FFFD3148B0EE409A00F0CCFDB4EE499A44
:10454C00F1EE10FAB0EE408A04D6B4EE400AF1EE69
:10455C0010FA5DD702F018F8284901F0E2FA13B00E
:10456C00BDEC088BBDE8F08F0F7B0D00ECE5032054
:10457C0038E5032030E5032038E6032034E6032039
:10458C00237B0D00F4E50320F0E50320E8E5032090
:10459C000000000014E6032012E60320DEE50320F1
:1045AC00DCE50320DAE50320CAE503200000FA432A
:1045BC0018E60320B4790D00C3F51C3AB8790D0048
:1045CC00BE790D000000FA3BC2790D00C6790D00D2
:1045DC00CB790D00D3790D00DC790D00E2790D005B
:1045EC00E9790D00F1790D00077A0D000B7A0D00B9
:1045FC0000007A44217A0D00FCE50320287A0D0096
:10460C00E0E5032040E5032044E5032010E6032009
:10461C0001F0BAFFB449B54E01F070FA01F0B4FFE5
:10462C00B0EE490A022101F06DFB01F0ADFFB0497B
:10463C0001F064FA01F0A8FFAE4901F05FFA01F055
:10464C00A3FFB0EE480A022101F05CFB01F09CFFD5
:10465C00A94901F053FA01F097FFA84901F04EFA6D
:10466C0001F092FF3568002D074680F28F812D21D5
:10467C0001F048FA69420A22384601F05CFA01F06E
:10468C0083FF9F4901F04DFA01F07EFF9D4901F037
:10469C0035FA01F079FF0A222168FFF7D1FD9A4B18
:1046AC000121188802F015FA984B0021188802F0A5
:1046BC0010FADFED977AF4EEE78AF1EE10FAB0EE2D
:1046CC00679A35D8934B944D1888002102F01AFA4A
:1046DC00924BFF21188802F015FA914B0021188893
:1046EC0002F010FA8F4B19688F4B188802F00AFAF7
:1046FC008E4B2821188802F005FA8D4B01221A6086
:10470C008C4A6423136033602B680133022B2B60BB
:10471C000ED189490EA8FFF7DDFC0FA8FFF77AFD33
:10472C00864A00231360864A2B601360854A136007
:10473C00F4EEC98AF1EE10FA3EDD764B7F4D188807
:10474C00FF2102F0DFF9754B2221188802F0DAF90B
:10475C00734B0021188802F0D5F9724B186802F0DF
:10476C0095FB0022784B02F0FBFB02F0D1FE6E4B66
:10477C000146188802F0C6F96C4B2821188802F003
:10478C00C1F96B4B01221A606A4A32231360336001
:10479C002B680133022B2B600ED16C490EA8FFF74E
:1047AC0099FC0FA8FFF736FD5B4A00231360644A9F
:1047BC002B601360634A1360DFED657A654BF4EE92
:1047CC00E78AF1EE10FA02DA1A68012A35D10122D1
:1047DC001A60504BFF21188802F094F94F4B0021BE
:1047EC00188802F08FF94E4B0021188802F08AF9D4
:1047FC004D4B0021188802F085F94C4BC8211888C4
:10480C0002F080F94A4B0222002535601A604C4EAA
:10481C00484B1D6033680133934233600DD14E49D0
:10482C000EA8FFF757FC0FA8FFF7F4FC3A4B3560C6
:10483C001D60424B1D60434B1D60484B484D83ED42
:10484C00008A2B680133042B2B607FF423AD454E7B
:10485C00B0EE480A062106A801F0CFF83378069A84
:10486C0041498DF800300EA83C2301F043FC0FA801
:10487C00FFF7D0FCB0EE680A06210AA801F0BDF8DB
:10488C0033780A9A39498DF800300EA83C2301F090
:10489C0031FC0FA8FFF7BEFCB0EE690A06210EA88A
:1048AC0001F0ABF833780E9A31498DF8003004A83A
:1048BC003C2301F01FFC05A8FFF7ACFC01F064FEE3
:1048CC002C4901F01BF901F05FFE29680A22FFF761
:1048DC00B7FC114A00231360184A2B601360184A66
:1048EC001360184A0EA847E03F7A0D0034E6032007
:1048FC00477A0D004C7A0D00537A0D00577A0D0053
:10490C00747A0D00767A0D0048E503204CE50320FF
:10491C000000484244E50320F4E5032038E5032079
:10492C0030E5032054E5032040E5032050E5032047
:10493C0030E6032038E60320977A0D00F0E50320DB
:10494C00E8E50320ECE503200000E83FA37A0D0026
:10495C000000C842E4E50320AE7A0D0028E60320EF
:10496C00F8E50320C9E50320B87A0D00C17A0D00E3
:10497C00C67A0D00D17A0D00136000F0E1FF0AA891
:10498C0000F0DEFF06A800F0DBFF83E4294672E6A8
:10499C0008B50A4B0A4800221A700A4B01221A70F9
:1049AC00402100F029FC062307481622072100F0BD
:1049BC0098F9BDE80840054800F00AB8C8E503209E
:1049CC0018E60320C9E50320FCE50320CAE5032013
:1049DC0068230370704707B5022300780091042206
:1049EC001B2100F023F903B05DF804FB07B502238B
:1049FC000078009104221C2100F018F903B05DF836
:104A0C0004FB0000F7B51646174A1D46034604463C
:104A1C00128813F8010B00920F460E223B2100F076
:104A2C0049F86278A37843EA02233B80E278237941
:104A3C0043EA022333806279A37943EA02232B8071
:104A4C00627AA37A43EA0223089A1380E27A237BE0
:104A5C0043EA0223099A1380627BA37B43EA022375
:104A6C000A9A138003B0F0BD58E503200B4600787A
:104A7C0006226B2100F0B6B807B50323007800912D
:104A8C0002226B2100F0D2F803B05DF804FB10B5E4
:104A9C0001210446FFF7F0FF20460021FFF79BFFA2
:104AAC0020460021FFF7A2FF20460021BDE8104060
:104ABC00FFF7DCBF2DE9F74F16469B46BDF830805B
:104ACC0007468A4600F040FC202E33464FF0000586
:104ADC00A8BF202381462C460193B5423AD202F05E
:104AEC004FF8394601F0ACFE02F04AF80368514623
:104AFC009B68984702F044F801F0AAFE02F040F8D7
:104B0C00394601F09DFE02F03BF8721B202AA8BF2B
:104B1C002022D2B2394601F090FE02F031F803683F
:104B2C001B69984790B1B8F1000F09D102F028F831
:104B3C0003685B6998470BF80400013464B2ECE736
:104B4C0000F002FCA0EB09004045EFD3019B1D4493
:104B5C00EDB2C2E7B8F1000F09D000F0F5FBA0EB05
:104B6C000900404503D3B442B8BF4FF0FF34204690
:104B7C0003B0BDE8F08F07B5009313460122FFF791
:104B8C0099FF03B05DF804FBF8B5074615461C46C3
:104B9C000E4601F0F5FF394601F052FE01F0F0FF30
:104BAC00036831469B6898472544AC4207D001F016
:104BBC00E7FF036814F8011B9B689847F5E701F0C1
:104BCC00DFFF01F045FEB0FA80F04009F8BD07B5F3
:104BDC008DF807200DF107030122FFF7D5FF03B075
:104BEC005DF804FB2DE9F3411F460F4B9046012461
:104BFC000DF107021B8805460E46FFF7BCFF04FAB1
:104C0C0008F252B29DF8074057B12243D2B2314656
:104C1C0028468DF80720FFF7DAFF02B0BDE8F081D7
:104C2C0024EA0202F3E700BF58E50320F7B51F465C
:104C3C00114B16461B880DF1070204460D46FFF773
:104C4C009AFFB8B1012202FA07F3F11B9DF820205C
:104C5C000131013B8B4002FA01F19DF80720C9B2EA
:104C6C0022EA03020B401A43294620468DF80720FE
:104C7C00FFF7ADFF03B0F0BD58E5032010B5036896
:104C8C002F2B044604D9074A00210A2000F05CFCB3
:104C9C0023681F2B83BF03F01F03034823604FF0CF
:104CAC00A04010BD45530D000003005007B5019006
:104CBC0001A8FFF7E3FF019A01239340C0F80835E0
:104CCC0003B05DF804FB07B5019001A8FFF7D6FF10
:104CDC00019BD0F81005D84000F0010003B05DF83E
:104CEC0004FB10B5037201238171C271037410BDF2
:104CFC002DE9F04105461E4C8079DFF878800021C3
:104D0C0001F0D6FEAE792378BFF35B8F13F0010F61
:104D1C000AD12046FFF7BDF930B100F0ADFAC8F862
:104D2C0000002046FFF7BAF9D8F8003036019F5D35
:104D3C002378BFF35B8FDB074FEA47170AD40C4885
:104D4C00FFF7A7F930B100F097FAC8F8000008484F
:104D5C00FFF7A4F9D8F8003033445B7803F01F0355
:104D6C0043EA0700FFF7A2FF0023EB60BDE8F081E8
:104D7C003CE6032040E603202DE9F04F044685B0C5
:104D8C0000F0E2FAE368834284BF0023E360237CF3
:104D9C002BB9E368C01AB0F5FA6FC0F0608100253A
:104DAC00257400F0D1FAB04E25602571E060A7792A
:104DBC003378AE4DBFF35B8F13F0010F09D1304642
:104DCC00FFF767F928B100F057FA28603046FFF773
:104DDC0065F92B683F0113F807803378BFF35B8FBD
:104DEC00D9074FEA481809D49F48FFF752F928B160
:104DFC0000F042FA28609C48FFF750F92B681F44DA
:104E0C00787800F01F0040EA0800FFF74FFFFA2007
:104E1C0000F0A0FFA079012101F04AFEA7793378B8
:104E2C00BFF35B8FDA0709D48F48FFF732F928B14B
:104E3C0000F022FA28608C48FFF730F92B683F010C
:104E4C00DB5D4FEA43183378BFF35B8FDB0709D484
:104E5C008548FFF71EF928B100F00EFA2860824849
:104E6C00FFF71CF92B681F4403A87B7803F01F0382
:104E7C0043EA08030393FFF701FF039A01239340CE
:104E8C00C0F80C35142000F065FF01F0D3FBA779B6
:104E9C003378BFF35B8FD80709D47348FFF7F9F861
:104EAC0028B100F0E9F928606F48FFF7F7F82B6894
:104EBC003F0113F807803378BFF35B8FD9074FEAB4
:104ECC00481809D46848FFF7E4F828B100F0D4F981
:104EDC0028606548FFF7E2F82B681F44787800F0EB
:104EEC001F0040EA0800FFF7E1FE282000F024FA3A
:104EFC00A079DFF87481002101F0DAFD002701238D
:104F0C00BA4600934FF0000994F806B03378BFF31B
:104F1C005B8FDA0709D44046FFF7BBF828B100F0E5
:104F2C00ABF928604046FFF7B9F82B684FEA0B1B2A
:104F3C0013F80B305B0101933378BFF35B8FDB0706
:104F4C0009D44046FFF7A5F828B100F095F9286080
:104F5C004046FFF7A3F82B685B4493F801B0019B24
:104F6C000BF01F0B4BEA030B5846FFF7ACFE5846F1
:104F7C00FFF7A9FE009B834209D109F101095FFAF1
:104F8C0089F9012000F0D8F9B9F1FF0FBCD194F8E0
:104F9C0006B03378BFF35B8FD80709D44046FFF7D0
:104FAC0078F828B100F068F928604046FFF776F8E9
:104FBC002B684FEA0B1B13F80B305B010093337813
:104FCC00BFF35B8FD90709D44046FFF762F828B1CD
:104FDC0000F052F928604046FFF760F82B685B44FC
:104FEC0093F801B0009B0BF01F0B4BEA030B5846D8
:104FFC00FFF769FE5846FFF766FEB9F1FF0FC3B223
:10500C00009318D0032F11D9FA070FD44FEADA0204
:10501C000AF1010AA35C5B00DBB2A354217A494577
:10502C003CBF43F00103A3545FFA8AFA0137FFB285
:10503C00552F7FF467AF01F0FFFABAF1270F10D9A3
:10504C00637820781844A3781844E37818442379BB
:10505C00C0B2C31A5842584105B0BDE8F08F0120C8
:10506C00FAE70020F8E700BF3CE6032040E6032007
:10507C0010B50446FFF780FE20B3E3790B2B1BD051
:10508C00153B012B1ED8A378DFED106A03F07F02CD
:10509C0007EE102AE27807EE902AB8EEC77AF8EEFF
:1050AC00E77A1B06E7EE267AB2EE047A87EE870AD9
:1050BC0007D5B1EE400A04E0A37800EE103AB8EE42
:1050CC00400A10BD9FED020AFBE700BF00008043C1
:1050DC000000C07FFFF7CCBF10B50446FFF74CFEB5
:1050EC00F0B1E3790B2B15D0153B012B18D8237895
:1050FC00DFED0D6A07EE103A637807EE903AB8EEE2
:10510C00477AF8EEE77AE7EE267AB2EE047A87EE83
:10511C00870A10BD237800EE103AB8EE400AF8E783
:10512C009FED020AF5E700BF000080430000C07F3E
:10513C00FFF7D2BF0368C9B29B68184770B5064623
:10514C0014460D4601F01CFD317801F079FB01F09D
:10515C0017FD036829469B68984701F011FD210A49
:10516C00FFF7E8FF01F00CFDE1B2FFF7E3FF01F000
:10517C0007FDBDE8704001F06BBB70B504461546E9
:10518C000E4601F0FDFC217801F05AFB01F0F8FC11
:10519C00036831469B68984701F0F2FC01F058FB1C
:1051AC00012000F0D7FD01F0EBFC2178022201F088
:1051BC0044FB01F0E5FC03685B699847044601F089
:1051CC00DFFC03685B69984740EA0420288070BDC7
:1051DC0010B54FF480520A23C0E901230223044680
:1051EC00C3600521FFF7AAFF204643F61F42BDE826
:1051FC0010400021FFF7A2BF0022C0E9022201707B
:10520C00704710B5044601F0BBFC01F0E7FA2046EC
:10521C00BDE81040FFF7DCBF13B5044682880521BA
:10522C00FFF78CFF20460DF106020421FFF7A5FFC6
:10523C00BDF9060002B010BD10B50446FFF7ECFF37
:10524C0007EE900AB8EEE70AD4ED027AF8EE677A28
:10525C0080EE270A10BD000008B5024B1B689B6846
:10526C00019308BD6802030008B5024B1B68DB689C
:10527C00019308BD6802030008B5024B1B681B684C
:10528C00019308BD2C02030008B5024B1B685B6838
:10529C00019308BD2C02030008B5024B1B689B68E8
:1052AC00019308BD2C02030008B5024B1B68DB6898
:1052BC00019308BD2C02030008B5024B1B681B6947
:1052CC00019308BD2C02030008B5024B1B689B69B7
:1052DC00019308BD2C02030008B5024B1B68DB6967
:1052EC00019308BD2C02030008B5024B1B681B6A16
:1052FC00019308BD2C02030008B5024B1B685B6AC6
:10530C00019308BD2C02030008B5024B1B689B6A75
:10531C00019308BD2C02030008B5024B1B689B6F60
:10532C00019308BD2C02030008B5024B1B685B6897
:10533C00019308BD1802030008B5024B1B68DB681B
:10534C00019308BD1802030008B5024B1B685B698A
:10535C00019308BD1802030008B5024B1B685B6C77
:10536C00019308BD4802030008B5024B1B689B6CF7
:10537C00019308BD4802030008B5024B1B685B692A
:10538C00019308BD6402030008B5024B1B681B683F
:10539C00019308BD3C02030008B5024B1B68DB6897
:1053AC00019308BD3C02030008B5024B1B681B6946
:1053BC00019308BD3C02030008B5024B1B685B69F6
:1053CC00019308BD3C02030008B5024B1B689B69A6
:1053DC00019308BD3C02030008B5024B1B68DB6956
:1053EC00019308BD3C02030008B5024B1B681B6A05
:1053FC00019308BD3C02030008B5024B1B689B6A75
:10540C00019308BD3C02030008B5024B1B68DB6826
:10541C00019308BD2802030008B5024B1B689B6969
:10542C00019308BD2802030008B5024B1B68DB6919
:10543C00019308BD2802030008B5024B1B681B6AC8
:10544C00019308BD2802030008B5024B1B685B6A78
:10545C00019308BD2802030008B5024B1B689B6A28
:10546C00019308BD2802030008B5024B1B68DB6AD8
:10547C00019308BD2802030008B5024B1B681B6B87
:10548C00019308BD2802030008B5024B1B685B6B37
:10549C00019308BD2802030008B5024B1B681B6C66
:1054AC00019308BD2802030008B5024B1B681B6D55
:1054BC00019308BD2802030008B5024B1B68DB6989
:1054CC00019308BD3002030008B5024B1B681B6A30
:1054DC00019308BD3002030008B5024B1B681B6822
:1054EC00019308BD4C02030008B5024B1B685B68B6
:1054FC00019308BD4C02030008B5024B1B681B69E5
:10550C00019308BD4C02030008B5024B1B685B6994
:10551C00019308BD4C02030008B5024B1B689B6944
:10552C00019308BD4C02030008B5024B1B68DB69F4
:10553C00019308BD4C02030008B5024B1B681B6AA3
:10554C00019308BD4C02030008B5024B1B685B6B52
:10555C00019308BD6002030008B5024B1B685B6831
:10556C00019308BD2002030008B5024B1B685B6960
:10557C00019308BD2002030008B5024B1B68DB6CCD
:10558C00019308BD2002030008B5024B1B685B6D3C
:10559C00019308BD2002030008B5034B1B68D3F828
:1055AC008830019308BD00002002030008B5034BAE
:1055BC001B68D3F89430019308BD0000200203004F
:1055CC0008B5024B1B685B68019308BD40020300E1
:1055DC0008B5024B1B689B68019308BD4002030091
:1055EC0008B5024B1B68DB68019308BD4002030041
:1055FC0008B5024B1B681B69019308BD40020300F0
:10560C0008B5024B1B685B69019308BD400203009F
:10561C0008B5024B1B689B69019308BD400203004F
:10562C0008B5024B1B68DB69019308BD40020300FF
:10563C0008B5024B1B681B6A019308BD40020300AE
:10564C0008B5024B1B681B6B019308BD400203009D
:10565C0008B5024B1B685B6B019308BD400203004D
:10566C0008B5024B1B681B6C019308BD400203007C
:10567C0008B5024B1B685B6C019308BD400203002C
:10568C0008B5024B1B681B68019308BD440203005C
:10569C0008B5024B1B685B69019308BD440203000B
:1056AC0008B5024B1B681B6A019308BD440203003A
:1056BC0008B5024B1B68DB6B019308BD4402030069
:1056CC0008B5024B1B681B68019308BD1C02030044
:1056DC0008B5024B1B685B68019308BD1C020300F4
:1056EC0008B5024B1B689B68019308BD1C020300A4
:1056FC0008B5024B1B68DB6A019308BD1C02030052
:10570C0008B5024B1B681B6B019308BD1C02030000
:10571C0008B5024B1B685B6C019308BD1C020300AF
:10572C00002240681146FFF783BF002240681146F3
:10573C00FFF78EBF40680022FFF782BF406800224F
:10574C0081F00101FFF76CBF002340681A4619462F
:10575C00FFF75EBF002340681A461946FFF750BF9B
:10576C00002240681146FFF743BF002240681146F3
:10577C00FFF72EBF406800220221FFF731BF002344
:10578C0040681A46FFF71CBF024B03225A60024ABC
:10579C001A60704744E60320407B0D0010B50446A8
:1057AC0008462170FFF788FE00236360204610BD79
:1057BC0010B50446006818B1FFF78AFF0023236078
:1057CC0010BD10B50446FFF7F3FF204610BD0000D6
:1057DC0010B5094B094C022200201A60084B2060BE
:1057EC00A080A071A360FFF7B7FE2046054A0649CA
:1057FC00BDE8104001F0ECB958E603204CE603205C
:10580C000000FFFFC4E50320CF570D0010B5044680
:10581C0002F09DF8013823182046834206D90278FD
:10582C00197800F8011B03F80129F6E710BD70B5D3
:10583C000C46911E2229054622D820466DB1B5FB97
:10584C00F2F602FB1655E9B2092D94BF30315731EF
:10585C00C9B200F8011B3546F0E70246234430215B
:10586C00934202D902F8011BFAE71A1A834238BF95
:10587C000022002383542046FFF7C8FF204670BD4A
:10588C000020FCE72DE9F04757EC106B80460C46E6
:10589C0010EE100A00220023394601F0D3FD28B186
:1058AC0007F100431F462D2304F8013B00234FF062
:1058BC0001090A22D9B2884503D902FB09F901333F
:1058CC00F8E7484601F0E2FA32463B4601F048FB65
:1058DC0006460F4601F054FE05468A4601F00AFBC7
:1058EC0002460B463046394601F082F9134B002232
:1058FC0001F0BCFD10B101354AF1000A4A462846B8
:10590C00D317514601F024FE0123154621460A22E5
:10591C00FFF78DFFB8F1000F0DD0204602F017F8FD
:10592C002E23211823540A22434628460131BDE870
:10593C00F047FFF77CBFBDE8F08700BF0000E03FF9
:10594C0010B504460068FFF7C3FE204610BD10B525
:10595C000446006808B1FFF7BBFE0023C4E901331D
:10596C00236010BD38B504460D4600680131FFF7C1
:10597C00B7FE10B1C4E90005012038BD10B50368AD
:10598C00044623B143688B4201D3012010BD20464D
:10599C00FFF7E8FF0028F9D0A368002BF5D12268A7
:1059AC001370F2E737B50D46114601920446FFF726
:1059BC00E5FF019A28B92046FFF7C9FF204603B03E
:1059CC0030BDA2602946206801F06AFF2268A368F6
:1059DC000021D154F2E713B5044659B108460191A0
:1059EC0001F0B5FF019902462046FFF7DBFF204688
:1059FC0002B010BDFFF7ABFFF9E730B5044600234A
:105A0C008BB0C4E90033A360237310EE100ACDB23F
:105A1C0001F04EFA41EC100B01A92846FFF732FFBA
:105A2C0001A92046FFF7D7FF20460BB030BD10B5BB
:105A3C000446006808B1FFF797FC204610BD10B56E
:105A4C008368044613B1032201469847204610BDD3
:105A5C000B68036013B15A6801325A60704713B572
:105A6C000B460246D0E900016C4684E8030093E83B
:105A7C00030082E8030094E8030083E8030002B00B
:105A8C0010BD000010B5064C002320462360FFF724
:105A9C0063FC2046034A0449BDE8104001F098B865
:105AAC005CE60320C4E503203B5A0D00F8B506461E
:105ABC000D468F180024BD420CD0336815F8011B1D
:105ACC009B6830469847031E01DB1C44F3E7002C0F
:105ADC0008BF1C462046F8BD13B50446084659B10C
:105AEC00019101F034FF23680199DB6802462046DE
:105AFC0002B0BDE81040184702B010BD08B5FFF762
:105B0C00EBFF08BD03689B68184738B50D210546A7
:105B1C00FFF7F8FF0A2104462846FFF7F3FF20445D
:105B2C0038BD38B50546FFF7D7FF04462846FFF7C2
:105B3C00ECFF204438BD30B58BB000238DF82430F9
:105B4C00012A98BF0A2209AC0D46B1FBF2F101FB08
:105B5C00125303F0FF03092B94BF30333733DBB2FE
:105B6C00AA4204F8013DEFD92146FFF7B5FF0BB06F
:105B7C0030BD00002DE9F74F55EC104B06460F4693
:105B8C0010EE102A10EE100A2B46294601F082FC6A
:105B9C0040B153493046FFF79FFF8246504603B051
:105BAC00BDE8F08F25F000494E4B4FF0FF322046F8
:105BBC00494601F06FFC48B94A4B4FF0FF32204682
:105BCC00494601F049FC08B94749E3E7474B4FF018
:105BDC0060422046294601F053FC08B14449D9E7FC
:105BEC00444B4FF060422046294601F02BFC002824
:105BFC00F4D1002200232046294601F023FCD0B129
:105C0C002D213046FFF77EFF05F1004382461D46ED
:105C1C003949DFF8EC904FF0000B00204FF00008F2
:105C2C005FFA8BF39F4208D942464B4601F0C2FA09
:105C3C000BF1010BF4E78246EAE722462B4600F013
:105C4C00D9FF0D46044601F063FC804601F00EF9C5
:105C5C0002460B462046294600F0CAFF0A2204469B
:105C6C000D4630464146FFF766FF824427B1234973
:105C7C003046FFF731FF8244DFF884904FF0000884
:105C8C00013FFFB2FF2F89D042464B4620462946A2
:105C9C0001F066F904460D4601F012FCB0F1000B60
:105CAC001ADA2D213046FFF72DFFCBF10001034608
:105CBC000A2230460193FFF73EFF019B18448244B1
:105CCC00584601F0E3F802460B462046294600F000
:105CDC008FFF04460D46D3E759460023E8E700BF83
:105CEC00747B0D00FFFFEF7F787B0D00FFFFEF4112
:105CFC007C7B0D00FFFFEFC10000E03F807B0D00BF
:105D0C000000244038B5044610EE100ACDB201F064
:105D1C00CFF841EC100B29462046BDE83840FFF780
:105D2C0029BF002340681A461946FFF769BC0000DA
:105D3C00014B024A1A60704760E60320827B0D001B
:105D4C00024B1A68024B1A60704700BF5CE50320D7
:105D5C0064E603200021FFF707BC10B50446FFF7EB
:105D6C006EFE204610BD00000348044A044900237F
:105D7C00836000F02DBF00BF68E60320C4E503205C
:105D8C00675D0D00014B1860704700BF60E5032094
:105D9C0008B50B4B43B100F0F7FB03681B69984740
:105DAC00002801DDAFF30080064B43B100F09AFCF4
:105DBC0003681B699847002801DDAFF3008008BD1C
:105DCC00000000000000000008B5FFF7E1FFFFF73E
:105DDC00BBFA014B186008BDD4E703200248034A04
:105DEC000349121A01F05CBD00F4032004F40320F3
:105DFC00087D0D0007B5002300931A466FF077015C
:105E0C00FFF7D4FB03B05DF804FB000007B5438833
:105E1C000A2B08D0502B0BD1094B1B684BB103B08C
:105E2C005DF804EB1847FFF7E5FF03B05DF804FBE2
:105E3C00002300931A466FF07701FFF7B7FBF4E7E6
:105E4C007CE6032038B5124C1248134D0021FFF7A5
:105E5C005FFC2368AB42114B0CBF012200221A706D
:105E6C0002D0FFF7BBFF2560FFF75EFA044601F096
:105E7C002DFD0B4B13B12046AFF3008000210848D9
:105E8C00FFF716FCBDE8384006480021FFF784BB3D
:105E9C0000F40320915D0D001E1C279A78E6032068
:105EAC0000000000195E0D0070470020704710B50F
:105EBC001021044600F091FE204610BD08B5FFF7F6
:105ECC00F6FF08BD30B500224FF69C74026084804A
:105EDC008D888C800C68858004600A6030BD10B59C
:105EEC0004460068FFF7F4FB204610BD38B5C468C3
:105EFC00F4B12378022B03D104F10C00FFF7EFFF70
:105F0C00656835B12846FFF79AFD1021284600F048
:105F1C0064FEA56835B12846FFF791FD102128468F
:105F2C0000F05BFE20461421BDE8384000F055BE61
:105F3C0038BD73B50E46044656F8043B00930D4627
:105F4C0001A83146FFF784FD019A009B6260236033
:105F5C0001A8002301930093FEF75CF93046FEF78D
:105F6C0059F92846082100F038FE204602B070BDD1
:105F7C00826810B50AB900F034FEBDE81040C36861
:105F8C00184708B5006800F11001FFF7F1FF08BDD4
:105F9C00826810B50AB900F024FEBDE81040C36851
:105FAC00184708B5006800F11001FFF7F1FF08BDB4
:105FBC0038B500230446036010200D46FEF763F845
:105FCC0028B10123C0E90133024B0360C560206096
:105FDC00204638BDAC7B0D0038B5002383608B6840
:105FEC0004460D462BB102229847EB68E360AB6880
:105FFC00A360204638BD0000F0B589B0046868463F
:10600C00FFF760FF4FF00203D4E84F2F002A03D1B3
:10601C00C4E8413F0029F7D125D104F10C056946AC
:10602C002846FFF74FFFBFF35B8F012363700020FF
:10603C0004F10803BFF35B8F53E8006F43E80002E1
:10604C00002AF9D1BFF35B8F6EB1FFF795FA78B1E7
:10605C0029463046FFF78CFF3046FFF7F0FC102145
:10606C00304600F0BAFD6846FFF739FF09B0F0BDC5
:10607C00314602A8FFF7B0FFE068B4F9105008B140
:10608C0001F048FC06901020ADF81C50FDF7FBFF0A
:10609C000546E8B1002787601820FDF7F4FF044699
:1060AC0088B10146876002A8FFF7D9FC049BA2685F
:1060BC00A360059B049206A9E268E36004F110005A
:1060CC000592FFF7FFFE084BEB60084B2C60AB60B2
:1060DC0006A8FFF704FF02A8FFF7B1FC002229462F
:1060EC000348FFF751FAB7E78F5F0D0025620D00EB
:1060FC0045670D002DE9F0478AB005469DF848909C
:10610C000C4617469846FFF7C3FA07AE824638BBD3
:10611C004FF62E73059005A93046ADF81830FFF7F1
:10612C00D1FE1420FDF7AFFF044648B102230370E3
:10613C000123C0E901AA437031460C30FFF7C2FEBF
:10614C002846214640F8044BFFF732FF3046FFF754
:10615C00C6FE05A8FFF7C3FE28460AB0BDE8F087C7
:10616C000C234FF0000A1420CDE908AA0793FDF781
:10617C008AFF014628B1C0E901AA80F800A080F886
:10618C0001A004A80391FFF713FF224B08930820EA
:10619C00FDF779FF824628B1039B40F8043B04A924
:1061AC00FFF756FC00965FFA89F3424639462046C3
:1061BC00CDF824A0FFF774FAB8B9039B5B7803F011
:1061CC00FF0293B94FF69C7305A903A80592ADF88D
:1061DC001830FFF711FF05A8FFF781FE05A80999F4
:1061EC00FFF7A7FE06A8FEF715F8039B059304A975
:1061FC0006A8FFF72DFC059B069A2B606A6000230E
:10620C0006A806930593FEF705F804A8FEF702F816
:10621C00A2E700BFE9620D00022AF8B5054607D0D7
:10622C00032A18D0012A01D10B6803600020F8BDA5
:10623C0018200E68FDF727FF044650B13146FFF7D2
:10624C00CBFE3069B6F9147008B101F063FB206124
:10625C00A7822C60EAE70468002CE7D004F1100058
:10626C00FFF73DFE2046FFF7EAFB1821204600F021
:10627C00B4FCDBE738B5002383608B6804460D461D
:10628C002BB102229847EB68E360AB68A360204611
:10629C0038BD022A70B5044607D0032A12D0012A51
:1062AC0001D10B680360002070BD14200E68FDF74F
:1062BC00EAFE054620B13146FFF7DCFF337C2B7438
:1062CC002560F0E70468002CEDD02046FFF7B7FB03
:1062DC001421204600F081FCE5E70000F0B589B000
:1062EC0004460D4601A81146FFF723FEA4B124B2C3
:1062FC001DB1284601F00EFB054601A803A9039524
:10630C00ADF81040FFF778FE03A8FFF7E8FD02A8F0
:10631C00FDF780FF09B0F0BD019D0123D5E84F2F9B
:10632C00002A03D1C5E8413F0029F7D1EFD12B73E7
:10633C00BFF35B8F6B702B1DBFF35B8F53E8006F4C
:10634C0043E80042002AF9D1BFF35B8F002EDED068
:10635C002046FFF711F9074660B105F10C013046F4
:10636C00FFF716FE3046FFF76AFB1021304600F0AF
:10637C0034FCCCE7314603A8FFF77CFF2B7B8DF870
:10638C001C301020FDF77FFE0546D0B1876014202D
:10639C00FDF779FE044678B18760014603A8FFF744
:1063AC005EFB059BA268A360069B0592E268E36016
:1063BC009DF81C3006922374064BEB60064B2C6048
:1063CC00AB6003A8FFF73BFB002229460348FFF70D
:1063DC00DBF8C7E7AF5F0D009F620D0045670D004E
:1063EC00704710B51821044600F0F7FB204610BD8D
:1063FC00F0B5037D062B8DB00E4600F104074FF06F
:10640C00000412D000F1080515F8011D0A223046CF
:10641C00FFF791FBAF42044419D0002CF4D02E218D
:10642C003046FFF76FFB0444EEE72F236A463946EC
:10643C000A208DF80040FEF79FFF684601F087FAAE
:10644C0033680246DB686946304698470446204666
:10645C000DB0F0BD10B5054B0446112240F8043BBD
:10646C00002101F02BFA204610BD00BFC87B0D00A7
:10647C000346074A10B543F8042B01F1100251F8FA
:10648C00044B43F8044B9142F9D10A781A7010BDB1
:10649C00C87B0D0010B59DF8084044EA032343EA7D
:1064AC00024242EA016104234160037510BD000001
:1064BC0013B5054B0360CB7800938B784A78097839
:1064CC00FFF7E8FF02B010BDC87B0D0041747047A8
:1064DC00704708B50021007CFFF71EF840EAE07019
:1064EC0008BD08B50121007CFFF716F840EAE07002
:1064FC0008BD08B5007CFFF707F820EAE07008BD7E
:10650C0008B5007CFEF7F8FF20EAE07008BD13B573
:10651C000446007C0191FEF7F7FF0028019901DC8D
:10652C00607C20B1207CFEF7FFFF20EAE07002B017
:10653C0010BD007CFFF700B810B51421044600F024
:10654C004CFB204610BD000010B54FF47A73044686
:10655C0008460021C4E90113044B23600123207475
:10656C0063741146FEF7B8FF204610BDDC7B0D00AE
:10657C00007C0022FEF7B8BF10B51422044600219F
:10658C0001F09CF9204610BD10B5104C88B003A842
:10659C00FFF7F2FF2178BFF35B8F11F0010111D1EE
:1065AC0020460191FDF775FD019958B103AA0848E1
:1065BC00FFF7CAFF2046FDF771FD064A064904485D
:1065CC0000F006FB024808B010BD00BF80E60320B7
:1065DC0084E60320C4E50320DD640D0000470000C1
:1065EC002DE9FF4100241D460F4690460646FEF756
:1065FC0073FEA5424FF00403ADF80D408DF80C303E
:10660C008DF80F40A2BF9DF828308DF80E3003ACEA
:10661C000749009443463A463046A8BF8DF80D50C2
:10662C00FEF752FEB0FA80F0400904B0BDE8F081EC
:10663C00E9650D00FEF760BEFEF756BE704741746B
:10664C00704708B5007CFEF7D7FE20EAE07008BD65
:10665C0008B5007CFEF7A8FE20EAE07008BD08B57E
:10666C00007CFEF7B1FE40EAE07008BD08B5007C86
:10667C00FEF7A2FE40EAE07008BD007CFEF7ACBE5F
:10668C0037B5457C04462DB1207C03B0BDE83040C5
:10669C00FEF782BE007C0191FEF7AEFE0028019948
:1066AC00F2DC284603B030BD10B51421044600F0CE
:1066BC0094FA204610BD000010B54FF0000C0446B3
:1066CC00084611464FF47A72C4E901C2044A2260AA
:1066DC000122207462741A46FEF756FE204610BD45
:1066EC000C7C0D0013B50E4C2178BFF35B8F11F0B1
:1066FC00010112D120460191FDF7CBFC019960B14B
:10670C00084A094B0948FFF7D7FF2046FDF7C6FC9E
:10671C00074A0849054800F05BFA044802B010BD6E
:10672C0098E603209CE6032020E70320A4E703203F
:10673C00C4E5032049660D0010B5836804460BB907
:10674C0000F04FFAC3689847A3681BB10322214697
:10675C002046984720461021BDE8104000F03DBA75
:10676C007047F8B5064615460C468F18BC4206D045
:10677C00336814F8011B9B6830469847F6E72846A7
:10678C00F8BD007C0022FEF757BE007C0021FEF70E
:10679C005BBE007C0021FEF75FBE007C0021FEF793
:1067AC0063BE007C0021FEF767BE10B514210446C1
:1067BC0000F013FA204610BD10B54FF47A7304465E
:1067CC0008460021C4E90113034B236020741146D1
:1067DC00FEF762FE204610BD3C7C0D000023007CC1
:1067EC001A461946FEF710BE7FB500221423CDE9D8
:1067FC000122ADF804300B788DF808304B68039308
:10680C00CB680493007C0B7A059301A9FEF74CFE30
:10681C0007B05DF804FB1FB5003B8DF800104FF07E
:10682C006401039118BF0123694601928DF8083069
:10683C00FFF7DAFF05B05DF804FB0123FFF7EBBFB0
:10684C00007C0022FEF7E8BD007C0022FEF7ECBDC8
:10685C000121FFF7F9BF002240681146FEF7C8BEC0
:10686C00002240681146FEF7E3BE00224068114644
:10687C00FEF7EEBE40680022FEF7E2BE4068002242
:10688C0081F00101FEF7CCBE002340681A46194680
:10689C00FEF7BEBE002240681146FEF799BE406866
:1068AC0000220221FEF79CBE002340681A46FEF728
:1068BC0087BE0000024B04225A60024A1A607047DD
:1068CC00B8E70320647C0D00002340681A46FEF7ED
:1068DC0077BE406800220221FEF782BE002240688B
:1068EC001146FEF775BE002240681146FEF780BEC9
:1068FC00002340681A461946FEF782BE0023406802
:10690C001A461946FEF784BE40680021FEF7A8BE61
:10691C0040680021FEF7ACBE4068002281F0010106
:10692C00FEF77EBE40680022FEF78ABE0022406859
:10693C001146FEF78DBE002240681146FEF778BE68
:10694C002DE9F043002495B016460D460746FFF797
:10695C0081FD214618220EA8009400F0AFFF4023C1
:10696C00CDE90C3421466B460CAA3046FEF77CFC74
:10697C00044600284CD1024601216868FEF738FE17
:10698C000221804622466868FEF732FE009E814650
:10699C002146002E3CD000293AD17368022B03D03B
:1069AC000A2B11D0F669F4E7B8F1000F0AD071691F
:1069BC0006A8043107ADFFF77BFD0FCD3C1D0FC4BE
:1069CC002B6823704146EDE7B9F1000F01D1494620
:1069DC00E8E77469102201A800F070FF06238DF817
:1069EC00143001AD04F108031834186859682A46AC
:1069FC0003C20833A3421546F7D101A906A807AD77
:106A0C00FFF736FD0FCD3C1D0FC42B682370DEE75E
:106A1C000098FEF721FC384615B0BDE8F083000065
:106A2C00024B034A1A6000225A607047C0E70320E9
:106A3C00A07C0D00232813B502D9002002B010BD94
:106A4C00A0F10B03022B1AD8174C2178BFF35B8FE4
:106A5C0011F001010BD120460191FDF71AFB0199B0
:106A6C0028B11248FEF79AFE2046FDF717FB0F4B94
:106A7C001878FEF729FD0028DFD10120DEE7012878
:106A8C0009D800F07DF80021007CFEF7FDFC80F0B9
:106A9C000100C0B2D2E709380128EED8FFF722FE78
:106AAC00007CFEF7A1FCF2E7C8E70320CCE703204B
:106ABC00232838B504460D460AD8FF2908D0FFF71D
:106ACC00B9FF28B129462046BDE83840FEF7E4BBA3
:106ADC0038BD38B504460D46FEF7E6FBFF2810D04E
:106AEC00062804D84D2323FA00F0C30709D4204606
:106AFC00FFF7A0FF28B129462046BDE83840FEF735
:106B0C00DBBB38BD38B504460D46FFF793FFF0B13B
:106B1C0004212046FEF7B8FB042805D1A9B2204673
:106B2C00BDE83840FEF7F0BB02212046FEF7ACFB77
:106B3C0002280CD12046FEF7B7FB012801D004280F
:106B4C0005D129462046BDE83840FEF7E5BB38BDE7
:106B5C0038B5002320254380142304460380856028
:106B6C0005610649284600F03AF804496060284659
:106B7C0000F035F8E060204638BD00BFD47C0D0035
:106B8C0030B50F4D2978BFF35B8F11F0010487B03E
:106B9C0013D12846FDF77DFA78B101A8FFF7D8FF8D
:106BAC0001AA21460748FFF707FE2846FDF776FAAB
:106BBC00054A0649034800F00BF8024807B030BDFF
:106BCC00D8E70320DCE70320C4E503206D670D0044
:106BDC000B460146184600F055BEFDF758BAFDF7B6
:106BEC0054BA08B5FEF784FD81F0004102E000BF05
:106BFC0083F0004330B54FEA41044FEA430594EA71
:106C0C00050F08BF90EA020F1FBF54EA000C55EAAB
:106C1C00020C7FEA645C7FEA655C00F0E2804FEA7C
:106C2C005454D4EB5555B8BF6D420CDD2C4480EA5E
:106C3C00020281EA030382EA000083EA010180EA8E
:106C4C00020281EA0303362D88BF30BD11F0004FDC
:106C5C004FEA01314FF4801C4CEA113102D0404212
:106C6C0061EB410113F0004F4FEA03334CEA13334D
:106C7C0002D0524263EB430394EA050F00F0A78065
:106C8C00A4F10104D5F1200E0DDB02FA0EFC22FA60
:106C9C0005F2801841F1000103FA0EF2801843FA54
:106CAC0005F359410EE0A5F120050EF1200E012A45
:106CBC0003FA0EFC28BF4CF0020C43FA05F3C01883
:106CCC0051EBE37101F0004507D54FF0000EDCF1FC
:106CDC00000C7EEB00006EEB0101B1F5801F1BD3A5
:106CEC00B1F5001F0CD349085FEA30004FEA3C0CA9
:106CFC0004F101044FEA445212F5800F80F09A809F
:106D0C00BCF1004F08BF5FEA500C50F1000041EBA2
:106D1C00045141EA050130BD5FEA4C0C404141EBA6
:106D2C000101013C28BFB1F5801FE9D291F0000FA1
:106D3C0004BF01460020B1FA81F308BF2033A3F150
:106D4C000B03B3F120020CDA0C3208DD02F1140C47
:106D5C00C2F10C0201FA0CF021FA02F10CE002F182
:106D6C001402D8BFC2F1200C01FA02F120FA0CFC7B
:106D7C00DCBF41EA0C019040E41AA2BF01EB0451C4
:106D8C00294330BD6FEA04041F3C1CDA0C340EDCC2
:106D9C0004F11404C4F1200220FA04F001FA02F305
:106DAC0040EA030021FA04F345EA030130BDC4F1C3
:106DBC000C04C4F1200220FA02F001FA04F340EAB8
:106DCC000300294630BD21FA04F0294630BD94F069
:106DDC00000F83F4801306BF81F480110134013D50
:106DEC004EE77FEA645C18BF7FEA655C29D094EAC1
:106DFC00050F08BF90EA020F05D054EA000C04BF3F
:106E0C001946104630BD91EA030F1EBF0021002029
:106E1C0030BD5FEA545C05D14000494128BF41F0C8
:106E2C00004130BD14F580043CBF01F5801130BD2C
:106E3C0001F0004545F0FE4141F470014FF00000B7
:106E4C0030BD7FEA645C1ABF194610467FEA655C68
:106E5C001CBF0B46024650EA013406BF52EA03350A
:106E6C0091EA030F41F4002130BD00BF90F0000FF8
:106E7C0004BF0021704730B54FF4806404F1320434
:106E8C004FF000054FF0000150E700BF90F0000FED
:106E9C0004BF0021704730B54FF4806404F1320414
:106EAC0010F0004548BF40424FF000013EE700BFE4
:106EBC0042004FEAE2014FEA31014FEA02701FBF74
:106ECC0012F07F4393F07F4F81F06051704732F0A6
:106EDC007F4208BF704793F07F4F04BF41F40021FD
:106EEC00704730B54FF4607401F0004521F000415B
:106EFC001CE700BF50EA010208BF704730B54FF0E5
:106F0C0000050AE050EA010208BF704730B511F0E5
:106F1C00004502D5404261EB41014FF4806404F11D
:106F2C0032045FEA915C3FF4D8AE4FF003025FEAA3
:106F3C00DC0C18BF03325FEADC0C18BF033202EB27
:106F4C00DC02C2F1200300FA03FC20FA02F001FA81
:106F5C0003FE40EA0E0021FA02F11444BDE600BF24
:106F6C0070B54FF0FF0C4CF4E06C1CEA11541DBFD3
:106F7C001CEA135594EA0C0F95EA0C0F00F0DEF89E
:106F8C002C4481EA030621EA4C5123EA4C5350EA83
:106F9C00013518BF52EA033541F4801143F48013D4
:106FAC0038D0A0FB02CE4FF00005E1FB02E506F065
:106FBC000042E0FB03E54FF00006E1FB03569CF0BA
:106FCC00000F18BF4EF0010EA4F1FF04B6F5007FC0
:106FDC0064F5407404D25FEA4E0E6D4146EB060632
:106FEC0042EAC62141EA55514FEAC52040EA5E50BB
:106FFC004FEACE2EB4F1FD0C88BFBCF5E06F1ED865
:10700C00BEF1004F08BF5FEA500E50F1000041EB9B
:10701C00045170BD06F0004646EA010140EA020048
:10702C0081EA0301B4EB5C04C2BFD4EB0C0541EA6A
:10703C00045170BD41F480114FF0000E013C00F37F
:10704C00AB8014F1360FDEBF002001F0004170BDA3
:10705C00C4F10004203C35DA0C341BDC04F11404BC
:10706C00C4F1200500FA05F320FA04F001FA05F248
:10707C0040EA020001F0004221F0004110EBD37015
:10708C0021FA04F642EB06015EEA430E08BF20EA41
:10709C00D37070BDC4F10C04C4F1200500FA04F3E4
:1070AC0020FA05F001FA04F240EA020001F0004176
:1070BC0010EBD37041F100015EEA430E08BF20EAE9
:1070CC00D37070BDC4F1200500FA05F24EEA020E31
:1070DC0020FA04F301FA05F243EA020321FA04F060
:1070EC0001F0004121FA04F220EA020000EBD37017
:1070FC005EEA430E08BF20EAD37070BD94F0000F17
:10710C000FD101F00046400041EB010111F4801F4A
:10711C0008BF013CF7D041EA060195F0000F18BFFB
:10712C00704703F00046520043EB030313F4801F37
:10713C0008BF013DF7D043EA0603704794EA0C0FF1
:10714C000CEA135518BF95EA0C0F0CD050EA410607
:10715C0018BF52EA4306D1D181EA030101F0004184
:10716C004FF0000070BD50EA410606BF10461946AC
:10717C0052EA430619D094EA0C0F02D150EA0136B8
:10718C0013D195EA0C0F05D152EA03361CBF1046F9
:10719C0019460AD181EA030101F0004141F0FE4198
:1071AC0041F470014FF0000070BD41F0FE4141F41C
:1071BC00780170BD70B54FF0FF0C4CF4E06C1CEA1C
:1071CC0011541DBF1CEA135594EA0C0F95EA0C0FD1
:1071DC0000F0A7F8A4EB050481EA030E52EA03358C
:1071EC004FEA013100F088804FEA03334FF08055AD
:1071FC0045EA131343EA12634FEA022245EA1115DA
:10720C0045EA10654FEA00260EF000419D4208BF8A
:10721C00964244F1FD0404F5407402D25B084FEA37
:10722C003202B61A65EB03055B084FEA32024FF4E3
:10723C0080104FF4002CB6EB020E75EB030E22BF40
:10724C00B61A754640EA0C005B084FEA3202B6EB00
:10725C00020E75EB030E22BFB61A754640EA5C00AF
:10726C005B084FEA3202B6EB020E75EB030E22BF3F
:10727C00B61A754640EA9C005B084FEA3202B6EB40
:10728C00020E75EB030E22BFB61A754640EADC00FF
:10729C0055EA060E18D04FEA051545EA16754FEA61
:1072AC0006164FEAC30343EA52734FEAC2025FEA7F
:1072BC001C1CC0D111F4801F0BD141EA00014FF00E
:1072CC0000004FF0004CB6E711F4801F04BF0143DF
:1072DC000020B4F1FD0C88BFBCF5E06F3FF6AFAEFB
:1072EC00B5EB030C04BFB6EB020C5FEA500C50F18B
:1072FC00000041EB045170BD0EF0004E4EEA11310E
:10730C0014EB5C04C2BFD4EB0C0541EA045170BD14
:10731C0041F480114FF0000E013C90E645EA060E58
:10732C008DE60CEA135594EA0C0F08BF95EA0C0F86
:10733C003FF43BAF94EA0C0F0AD150EA01347FF4CE
:10734C0034AF95EA0C0F7FF425AF104619462CE7A5
:10735C0095EA0C0F06D152EA03353FF4FDAE104608
:10736C00194622E750EA410618BF52EA43067FF459
:10737C00C5AE50EA41047FF40DAF52EA43057FF4E9
:10738C00EBAE12E74FF0FF3C06E000BF4FF0010CF4
:10739C0002E000BF4FF0010C4DF804CD4FEA410C58
:1073AC007FEA6C5C4FEA430C18BF7FEA6C5C1BD025
:1073BC0001B050EA410C0CBF52EA430C91EA030FA6
:1073CC0002BF90EA020F0020704710F1000F91EA03
:1073DC00030F58BF994208BF90422CBFD8176FEAD1
:1073EC00E37040F0010070474FEA410C7FEA6C5C9F
:1073FC0002D150EA013C07D14FEA430C7FEA6C5CA6
:10740C00D6D152EA033CD3D05DF8040B704700BFD1
:10741C008446104662468C461946634600E000BF1F
:10742C0001B5FFF7B7FF002848BF10F1000F01BDF1
:10743C004DF808EDFFF7F4FF0CBF012000205DF8BC
:10744C0008FB00BF4DF808EDFFF7EAFF34BF012041
:10745C0000205DF808FB00BF4DF808EDFFF7E0FFDA
:10746C0094BF012000205DF808FB00BF4DF808ED2B
:10747C00FFF7CEFF94BF012000205DF808FB00BF92
:10748C004DF808EDFFF7C4FF34BF012000205DF874
:10749C0008FB00BF4FEA410C7FEA6C5C02D150EA5A
:1074AC00013C0AD14FEA430C7FEA6C5C02D152EAF0
:1074BC00033C02D14FF0000070474FF001007047C1
:1074CC004FEA410212F5001215D211D56FF4787300
:1074DC00B3EB625212D94FEAC12343F0004343EAA3
:1074EC00505311F0004F23FA02F018BF404270477E
:1074FC004FF00000704750EA013005D111F0004008
:10750C0008BF6FF0004070474FF00000704700BF9D
:10751C004A0011D212F5001211D20DD56FF4787306
:10752C00B3EB62520ED44FEAC12343F0004343EA5B
:10753C00505323FA02F070474FF00000704750EAA6
:10754C00013002D14FF0FF3070474FF00000704710
:10755C0053B94AB9002908BF00281CBF4FF0FF31AE
:10756C004FF0FF3000F08CB9ADF1080C6DE904CE92
:10757C0000F024F8DDF804E0DDE9022304B07047E4
:10758C00D0B50C4B002206460F46FFF7E9FCFFF77F
:10759C00BFFF0446FFF76AFC074B0022FFF7E0FC35
:1075AC0002460B4630463946FFF722FBFFF7B0FF89
:1075BC002146D0BD0000F03D0000F0412DE9F04720
:1075CC00089D04468C46002B40F083808A42174667
:1075DC0047D9B2FA82F242B1C2F1200024FA00F08B
:1075EC009140974040EA010C94404FEA1748230C15
:1075FC00BCFBF8F61FFA87FE08FB16C143EA0143F1
:10760C0006FB0EF1994209D9FB1806F1FF3080F008
:10761C001981994240F21681023E3B445B1AA4B296
:10762C00B3FBF8F008FB103344EA034400FB0EFEF6
:10763C00A64509D93C1900F1FF3380F00581A64518
:10764C0040F2028102383C4440EA0640A4EB0E04AE
:10765C0000261DB1D4400023C5E900433146BDE8E6
:10766C00F08702B9FFDEB2FA82F2002A50D1CB1BAE
:10767C004FEA174E1FFA87F80126B3FBFEFC210CCC
:10768C000EFB1C3341EA034108FB0CF38B4207D978
:10769C0079180CF1FF3002D28B4200F2E98084465B
:1076AC00C91AA3B2B1FBFEF00EFB101143EA014460
:1076BC0008FB00F8A04507D93C1900F1FF3302D2B2
:1076CC00A04500F2D9801846A4EB080440EA0C400F
:1076DC00BFE78B4209D9002D00F0B1800026C5E927
:1076EC00000130463146BDE8F087B3FA83F6002E30
:1076FC004AD18B4202D3824200F2B880841A61EBE9
:10770C00030101208C46002DA8D0C5E9004CA5E74B
:10771C00C2F1200320FA03F6974001FA02F04FEA77
:10772C00174ED9403043030CB1FBFEF61FFA87F815
:10773C000EFB161143EA014306FB08F1994204FAC9
:10774C0002F409D9FB1806F1FF3C80F08D809942B8
:10775C0040F28A80023E3B445B1A81B2B3FBFEF0DE
:10776C000EFB103341EA034100FB08F38B4207D9AF
:10777C00791800F1FF3C73D28B4271D9023839442D
:10778C00CB1A40EA064678E7C6F1200C03FA06F459
:10779C0022FA0CF31C4320FA0CF701FA06F34FEA19
:1077AC00144E21FA0CF11F433B0CB1FBFEF91FFAEE
:1077BC0084F80EFB191143EA014109FB08FA8A45CA
:1077CC0002FA06F200FA06F308D9611809F1FF3043
:1077DC0048D28A4546D9A9F102092144A1EB0A01F4
:1077EC00BFB2B1FBFEF00EFB101147EA014700FBE4
:1077FC0008F8B84507D9E71900F1FF312ED2B84582
:10780C002CD90238274440EA0940A7EB0807A0FB13
:10781C0002894F45C64649461AD317D05DB1B3EB22
:10782C000E0267EB010707FA0CFCF2404CEA02026D
:10783C00F740C5E9002700263146BDE8F0872E4603
:10784C0028460BE70646E9E61846FDE64345E5D231
:10785C00B8EB020E69EB04010138DFE70846D2E70A
:10786C0060468DE78146B9E7664675E730464AE7DC
:10787C00ACF1020C394413E702383C4424E700BF56
:10788C00704700BF10B5054C13462CB10A46014693
:10789C000220AFF3008010BD2046FCE70000000082
:1078AC000A44914200F1FF3300D1704710B511F832
:1078BC00014B03F8014F9142F9D110BD024403462C
:1078CC00934200D1704703F8011BF9E738B50D4B13
:1078DC001D68AB6B04467BB91820FDF7F1FE0A4A14
:1078EC000A4BA863C0E90023094B83600B238381F7
:1078FC0001220023C0E90423AB6B00221C615A61F6
:10790C0038BD00BF60E503200E33CDAB34126DE6FD
:10791C00ECDE0500024B0146186800F003B800BF0E
:10792C0060E5032037B5044608460D4600F00FF815
:10793C00421C114620460192FDF7E2FE044618B1A6
:10794C00019A2946FFF7ACFF204603B030BD034631
:10795C0013F8012B002AFBD1181A013870470000CC
:10796C001D400D0059400D0081400D0085400D005B
:10797C000000000054656D706572746174757261FD
:10798C00204D6F746F720056656C6F63696461642F
:10799C00204D6F746F72005472616E73706F7274DD
:1079AC006520557361646F00583A200020473B20D6
:1079BC002000593A20005A3A20002047202000503D
:1079CC00697463683A200020C2B02F733B202000FA
:1079DC005961773A2000526F6C6C3A200020C2B08B
:1079EC002F73202000436F727269656E746520647A
:1079FC0065206D6F746F723A202000206D4100502D
:107A0C006F74656E636961206465206D6F746F724D
:107A1C003A20202000205761747473004E6F20733D
:107A2C0065207075646F206C656572206461746F7D
:107A3C0073210048756D69643A200025202D2000C3
:107A4C0054656D703A20002A4320002056656C6FF7
:107A5C0063696461642064656C204D6F746F72207F
:107A6C002D2050574D3A2000250020424F544F4EA8
:107A7C0020454D455247454E4349412028636F6E82
:107A8C00745F686F6E676F293A200054454D505FE4
:107A9C004E4F524D414C0054454D505F4D4544495D
:107AAC004F0054454D505F414C544F0074656D7000
:107ABC005F30303100436F7272006163635F6778CF
:107ACC005F30303100202D2D2D2D2D2D2D2D2D2DD8
:107ADC002D2D2D2D205365207075626C69636F20E0
:107AEC006461746F20656E206C61206E7562652018
:107AFC0028636F6E7461646F725F6E7562653A2095
:107B0C0029200020424F544F4E20454D45524745A9
:107B1C004E4349413A20005041524144415F454D4A
:107B2C00455247454E43494100000000000000000B
:107B3C00000000008B570D0081570D0077570D008A
:107B4C006D570D0061570D0055570D0015690D004F
:107B5C001D690D0049570D0041570D0037570D0099
:107B6C002D570D004D690D006E616E00696E66003B
:107B7C006F7666002E006170700025592D256D2DD5
:107B8C0025645425483A254D3A2553257A006173CE
:107B9C006374696D650000000000000000000000C7
:107BAC00B55E0D00BB5E0D00F95E0D00C95E0D00EB
:107BBC00B75E0D000000000000000000FD630D002A
:107BCC00ED630D00EF630D000000000000000000ED
:107BDC00DD640D0045650D001B650D00B95A0D00E7
:107BEC000D650D00DF640D00EF640D003F650D00A9
:107BFC00FF640D00D9640D000000000000000000BF
:107C0C0049660D00B5660D008D660D00B95A0D0064
:107C1C005D660D0079660D006B660D0087660D00C4
:107C2C004B660D004F660D000000000000000000C8
:107C3C006D670D00B7670D008F670D006F670D0046
:107C4C0097670D009F670D00A7670D00AF670D00CC
:107C5C000000000000000000B5680D00AB680D00CE
:107C6C00A1680D0063680D002F5D0D0095680D0077
:107C7C0015690D001D690D0089680D0081680D00E6
:107C8C0077680D006D680D004D690D000000000057
:107C9C0000000000D5680D00DF680D00E9680D00DC
:107CAC00F3680D00FD680D0009690D0015690D00E4
:107CBC001D690D0025690D0031690D0039690D0034
:107CCC0043690D004D690D00000000009D490D0039
:107CDC0095570D00DD570D00915A0D003D5D0D00BF
:107CEC004D5D0D00755D0D00C1680D002D6A0D0018
:047CFC000000000084
:087D0000C8F8FF7F010000003C
:047D08000000000077
:107D0C00110000000A000000120000000900000031
:107D1C000400000013000000050000000600000035
:107D2C0008000000FF000000E80300009A7B0D0033
:107D3C0064E50320000000000000000000000000CB
:107D4C000000000000000000000000000000000027
:107D5C000000000000000000000000000000000017
:107D6C000000000000000000000000000000000007
:107D7C0000000000000000000000000000000000F7
:107D8C0000000000000000000000000000000000E7
:047D9C0000000000E3
:107DA000FFFFFFFF00000102030405060708090AA0
:107DB0000B0C0D0E0F101112131415161718191A9B
:087DC0001B1C1D1E1F202800E2
:047DC80078563412A3
:04000003D000401CCD
:00000001FF
